:020000020000FC
:100000000F931F9307E610E00093C4001093C50000
:1000100008E10093C1001F910F9152985398549892
:100020002098569A579A209A229A239A249A259A87
:10003000219A5E9A5F9828982A982B982C9A2D9846
:1000400020E030E040E050E060E070E080E090E0F0
:10005000A0E02395503069F0523059F02A3A09F067
:1000600036C03395383009F032C04395483061F0DE
:100070002EC02A3A09F02BC033953A3A09F027C02E
:1000800043954A3A09F023C020E030E040E0503088
:1000900039F0513051F0523079F05330A1F017C09F
:1000A0005E985F9A289851E012C05A985C9A5E98C0
:1000B0005F98289A52E00BC05A9A5C985E985F9AB3
:1000C000289853E004C05E9A5F98289850E04A9BB5
:1000D0001CC070E07917A1F10F930091C00005FFDB
:1000E000FCCF01E40093C6000F912F938F939F9351
:1000F00021E08EE39CE90197F1F72A95D1F7000002
:100100009F918F912F9190E01BC071E07917C1F002
:100110000F930091C00005FFFCCF02E40093C600DE
:100120000F912F938F939F9321E08EE39CE901978A
:10013000F1F72A95D1F700009F918F912F9191E0CF
:100140004B9B1CC080E08A17A1F10F930091C00067
:1001500005FFFCCF03E40093C6000F912F938F930C
:100160009F9321E08EE39CE90197F1F72A95D1F75F
:1001700000009F918F912F91A0E01BC081E08A1712
:10018000C1F00F930091C00005FFFCCF04E4009381
:10019000C6000F912F938F939F9321E08EE39CE9EC
:1001A0000197F1F72A95D1F700009F918F912F9138
:1001B000A1E04A9B01C006C04B9B01C003C05A9AF4
:1001C0005C9803C05A985C9A00C04C9B02C060E0E7
:1001D00055C0289901C032C04A9B01C003C04B9B47
:1001E0002DC000C02B9A2F938F939F9327E08EE30F
:1001F0009CE90197F1F72A95D1F700009F918F9123
:100200002F912B98603009F024CF0F930091C000FC
:1002100005FFFCCF05E40093C6000F912F938F9349
:100220009F9321E08EE39CE90197F1F72A95D1F79E
:1002300000009F918F912F9161E00BCF2A9A2D9A08
:100240002F938F939F932AE08EE39CE90197F1F718
:100250002A95D1F700009F918F912F912A982D9880
:100260002F938F939F932AE08EE39CE90197F1F7F8
:0E0270002A95D1F700009F918F912F91EACE31
:00000001FF
