:020000020000FC
:10000000529853985498569A579A209A219A229A1D
:10001000239A259A5E985F9A2898299A2A982B9A6B
:100020002D984A9B03C05E985F9A02C05E9A5F98C3
:100030004B9B03C02898299A02C0289A29984A9B6A
:1000400003C02A982B9A08C04B9B03C02A982B9A6E
:1000500003C02A9A2B9802C02A982B9A4C9B02C064
:100060002D9822C01A9902C02D981EC02D9A2F9348
:100070008F939F932AE08EE39CE90197F1F72A95ED
:10008000D1F700009F918F912F912D982F938F93EF
:100090009F932AE08EE39CE90197F1F72A95D1F727
:0A00A00000009F918F912F91BCCFBB
:00000001FF
